{
  "address": "0x2160D7e80e4550f9a09E26C48A60CCd326052ec4",
  "abi": [
    {
      "inputs": [
        {
          "internalType": "address",
          "name": "_targetContract",
          "type": "address"
        }
      ],
      "stateMutability": "nonpayable",
      "type": "constructor"
    },
    {
      "inputs": [],
      "name": "CALL_FAILED",
      "type": "error"
    },
    {
      "inputs": [],
      "name": "attempt",
      "outputs": [],
      "stateMutability": "nonpayable",
      "type": "function"
    }
  ],
  "transactionHash": "0x54fdfb37bdabd7d95fefb403147571c9b48c3fa73b7e47821c68e4e444ad5f82",
  "args": [
    "0xcF469d3BEB3Fc24cEe979eFf83BE33ed50988502"
  ],
  "numDeployments": 1,
  "solcInputHash": "4165a40c61d53db7e40f9f2a19250b36",
  "bytecode": "0x60a060405234801561001057600080fd5b5060405161035d38038061035d833981810160405281019061003291906100cf565b8073ffffffffffffffffffffffffffffffffffffffff1660808173ffffffffffffffffffffffffffffffffffffffff1681525050506100fc565b600080fd5b600073ffffffffffffffffffffffffffffffffffffffff82169050919050565b600061009c82610071565b9050919050565b6100ac81610091565b81146100b757600080fd5b50565b6000815190506100c9816100a3565b92915050565b6000602082840312156100e5576100e461006c565b5b60006100f3848285016100ba565b91505092915050565b608051610247610116600039600060c501526102476000f3fe608060405234801561001057600080fd5b506004361061002b5760003560e01c8063732b7a8d14610030575b600080fd5b61003861003a565b005b60006040516024016040516020818303038152906040527f732b7a8d000000000000000000000000000000000000000000000000000000007bffffffffffffffffffffffffffffffffffffffffffffffffffffffff19166020820180517bffffffffffffffffffffffffffffffffffffffffffffffffffffffff8381831617835250505050905060007f000000000000000000000000000000000000000000000000000000000000000073ffffffffffffffffffffffffffffffffffffffff168260405161010891906101fa565b6000604051808303816000865af19150503d8060008114610145576040519150601f19603f3d011682016040523d82523d6000602084013e61014a565b606091505b5050905080610185576040517f84aed38d00000000000000000000000000000000000000000000000000000000815260040160405180910390fd5b5050565b600081519050919050565b600081905092915050565b60005b838110156101bd5780820151818401526020810190506101a2565b60008484015250505050565b60006101d482610189565b6101de8185610194565b93506101ee81856020860161019f565b80840191505092915050565b600061020682846101c9565b91508190509291505056fea2646970667358221220a058dd4fe07815e27766047775798cb7d829588073bcff85a778a7a4dc4a9dc464736f6c63430008110033",
  "devdoc": {
    "kind": "dev",
    "methods": {},
    "version": 1
  },
  "userdoc": {
    "kind": "user",
    "methods": {},
    "version": 1
  },
  "storageLayout": {
    "storage": [],
    "types": null
  }
}